:100000000C942A000C9447000C9447000C94470071
:100010000C9447000C9447000C9447000C94470044
:100020000C9447000C9447000C9447000C94470034
:100030000C9447000C9447000C9447000C94470024
:100040000C9447000C9447000C9447000C94470014
:100050000C94470011241FBECFE5D4E0DEBFCDBF16
:1000600010E0A0E6B0E0E6EAF3E202C005900D92EF
:10007000AC3FB107D9F721E0ACEFB0E001C01D9271
:10008000A733B207E1F70E9453030C94D1110C94EB
:100090000000919A0895811102C00C94490082B326
:1000A00012BA0895EF92FF920F931F93CF93DF93AD
:1000B0007C018B01C0E0D0E0CE15DF0559F082B3A2
:1000C00012BAC8010E94FC03909AC8010E94FC0366
:1000D0002196F2CF909ADF91CF911F910F91FF90CF
:1000E000EF9008958F92AF92CF92EF92FF920F937D
:1000F0001F93CF93DF930E945C0386E08F9385E08C
:100100008F9384E0882E93E0A92ECC24CA94EE2409
:10011000EA940FEF2FEF42E061E080E00E94D0050B
:1001200068E082E00E94700617BA8FEF81BB88BB3F
:1001300082BB82B312BA68EC70E088E592E00E945C
:1001400052006CE271E088E592E00E94520068EC97
:1001500070E088E592E00E9452000E9449000F90F2
:100160000F90C2EBD0E001ED10E0FF24F3948091FA
:10017000FC009091FD0080329E4420F10E946A06AE
:10018000DF93CF931F921F921F921F920E944A0AE1
:10019000809106018F93809105018F931F930F9398
:1001A0001F92FF921F921F920E944A0A1092FD0016
:1001B0001092FC008DB79EB70E960FB6F8949EBFB6
:1001C0000FBE8DBFB09910C08091050190910601BE
:1001D000883C910548F401969093060180930501AF
:1001E00082E390E00E940504B1990FC0809105015F
:1001F00090910601009749F0019790930601809332
:10020000050182E390E00E940504B29B0AC0809140
:10021000FC009091FD0001969093FD008093FC00FE
:10022000A6CF0E946A068BEB90E09F938F931F925C
:100230001F921F921F920E944A0A64E670E088EBA8
:100240009BE00E94520088EC90E00E94050480919F
:1002500005019091060190930401809303010F9092
:100260000F900F900F900F900F90CEEBD0E001ED1C
:1002700010E0FF24F394B29B5FC08091FC0090914A
:10028000FD0080329E4420F10E946A06DF93CF93E6
:100290001F921F921F921F920E944A0A809104018E
:1002A0008F93809103018F931F930F931F92FF925F
:1002B0001F921F920E944A0A1092FD001092FC00A9
:1002C0008DB79EB70E960FB6F8949EBF0FBE8DBF2A
:1002D000B09910C08091030190910401883C910570
:1002E00048F40196909304018093030182E390E027
:1002F0000E940504B19916C08091030190910401F8
:10030000009781F0209105013091060128173907E7
:1003100048F40197909304018093030182E390E0F5
:100320000E9405048091FC009091FD00019690933D
:10033000FD008093FC009FCF0E946A068BEB90E04B
:100340009F938F931F921F921F921F920E944A0A9F
:1003500064E670E088EB9BE00E94520088EC90E03D
:100360000E9405040F900F900F900F900F900F9028
:10037000C7ECD0E000ED10E0FF24F394B29B4BC03B
:100380008091FC009091FD0080329E4410F10E940B
:100390006A06DF93CF931F921F921F921F920E94B3
:1003A0004A0A8091FE001F928F931F930F931F9212
:1003B000FF921F921F920E944A0A1092FD00109213
:1003C000FC008DB79EB70E960FB6F8949EBF0FBE79
:1003D0008DBFB09909C08091FE008F5F8093FE00B1
:1003E00086E990E00E940504B1990BC08091FE005F
:1003F000882339F081508093FE0086E990E00E94C6
:1004000005048091FC009091FD0001969093FD0001
:100410008093FC00B3CF0E946A068BEB90E09F9321
:100420008F931F921F921F921F920E944A0A64E6A6
:1004300070E088EB9BE00E94520088EC90E00E9404
:1004400005040E946A06809104018F938091030144
:100450008F9386ED90E09F938F931F921F921F9230
:100460001F920E944A0A809106018F938091050194
:100470008F938DED90E09F938F931F9281E08F93E8
:100480001F921F920E944A0A8DB79EB746960FB6DA
:10049000F8949EBF0FBE8DBF88EE93E0DF91CF91A1
:1004A0001F910F91FF90EF90CF90AF908F900C9491
:1004B000050468EC70E084EF91E00E94520060E96E
:1004C00071E084EF91E00C94520064E670E084EFF8
:1004D00091E00E94520062E370E084EF91E00E949C
:1004E000520066E970E084EF91E00C9452000E94A3
:1004F0006A061092FD001092FC0010920001CC24BC
:10050000C394D12CC5EFD0E0BB24B3940CEE10E023
:1005100034EEE32E30E0F32E8091FC009091FD004C
:10052000892B09F44EC00E946A06809101019091C6
:1005300002018C392FEF920799F09F938F93FF92CE
:10054000EF921F921F921F921F920E944A0A8DB72C
:100550009EB708960FB6F8949EBF0FBE8DBF10C011
:100560001F930F931F921F921F921F920E944A0A7D
:1005700082B312BA0F900F900F900F900F900F90C0
:10058000809104018F93809103018F9380910601E4
:100590008F93809105018F93DF93CF931F92BF922A
:1005A0001F921F920E944A0A1092FD001092FC00B6
:1005B0008DB79EB70A960FB6F8949EBF0FBE8DBF3B
:1005C00004C0D092FD00C092FC000E948D030E94E6
:1005D000B4109B0170930201609301014091FE00F1
:1005E00050E08091030190910401840F951F8217C0
:1005F000930748F08091050190910601841B950BAB
:100600002817390740F480910001811104C0B0928D
:1006100000011092FF0080910001882349F182B30C
:1006200012BA8091FF00811120C020910101309108
:1006300002014091FE0050E080910301909104017D
:100640004496840F951F8217930750F080910501FF
:10065000909106014497841B950B2817390718F4CD
:100660000E94650202C00E945902B29BB092FF0034
:1006700080910101909102012091030130910401C8
:100680008217930708F048CF2091050130910601A9
:100690002817390708F040CF10920001B092FF00F0
:1006A0000E94490039CF0E9472000E94770285B3F0
:1006B00015BA0895A89A089587E084BB0C945A034C
:1006C00085B315BA0895A99A0895FF920F931F93C1
:1006D000CF93DF93F12CC7E0D0E001E010E00E945F
:1006E00060038AE090E00E94FC039F9B07C0980192
:1006F0000C2E01C0220F0A94EAF7F22A0E9463032B
:100700008AE090E00E94FC03219748F78F2DDF914B
:10071000CF911F910F91FF900895CF93DF930E9487
:1007200057038AE090E00E94FC030E946503682F53
:1007300070E0D62FCC270E946503C82B0E945A0375
:100740008AE090E00E9405040E9460030E94570323
:100750008AE090E00E9405040E945A0388EC90E031
:100760000E9405048AE090E00E94FC03C2FD11C0D3
:10077000BE0183E0769567958A95E1F780E090E089
:100780000E94E01020E030E040E85EE30E946E113D
:1007900004C060E070E088EC92ECDF91CF910895A6
:1007A00084B3807F84BB84B38E6084BB81E58DB9C4
:1007B00081E08EB90895262FFB013E2F321B34179E
:1007C00048F4DC013D91CD013FB9779BFECF3FB1AD
:1007D0003193F3CF0895282FFC018E2F821B8617AB
:1007E00028F481918FB9779BFECFF7CF08958FB909
:1007F000779BFECF8FB10895009731F022E02A95C4
:10080000F1F700C00197F8CF0895009741F0EFECA1
:10081000F7E03197F1F700C000000197F6CF089597
:10082000E199FECF9FBB8EBB6DBBE29AE19A089522
:10083000E199FECF9FBB8EBBE09A8DB308950F93D5
:100840001F93CF93DF93EB018C01061B170BCE0197
:10085000800F911F69910E941004FE0131978081E1
:100860008111F5CFDF91CF911F910F9108950F93D3
:100870001F93CF93DF93EB018C01061B170BCE0167
:10088000800F911F0E94180489938111F8CFDF9186
:10089000CF911F910F910895282F277086958695E7
:1008A00086958130B9F028F0823029F18330A1F1AA
:1008B00008953AB381E090E0022E01C0880F0A94B7
:1008C000EAF7662319F0382B3ABB08958095832305
:1008D0008ABB089537B381E090E0022E01C0880FF3
:1008E0000A94EAF7662319F0382B37BB08958095F0
:1008F000832387BB089534B381E090E0022E01C0CA
:10090000880F0A94EAF7662319F0382B34BB089550
:100910008095832384BB089531B381E090E0022E5B
:1009200001C0880F0A94EAF7662319F0382B31BB0F
:1009300008958095832381BB0895282F277086957D
:10094000869586958130B9F028F0823029F1833080
:10095000A1F108953BB381E090E0022E01C0880F21
:100960000A94EAF7662319F0382B3BBB089580956B
:1009700083238BBB089538B381E090E0022E01C041
:10098000880F0A94EAF7662319F0382B38BB0895CC
:100990008095832388BB089535B381E090E0022ED3
:1009A00001C0880F0A94EAF7662319F0382B35BB8B
:1009B00008958095832385BB089532B381E090E04C
:1009C000022E01C0880F0A94EAF7662319F0382B2B
:1009D00032BB08958095832382BB0895282F27700A
:1009E000869586958695813049F030F0823041F0C9
:1009F000833079F480B305C089B303C086B301C0E6
:100A000083B390E002C0959587952A95E2F78170AF
:100A1000089580E00895CF93C82F84FB662760F97E
:100A2000809131010E949D04C5FB662760F9809189
:100A300032010E949D04C6FB662760F98091330154
:100A40000E949D046C2F661F6627661F80913401EB
:100A5000CF910C949D04CF93DF9360E080912A01A5
:100A60000E949D0460E080912B010E949D04CCE2D5
:100A7000D1E061E088810E949D048AE090E00E94BC
:100A8000FC0360E08881DF91CF910C949D04CF93AB
:100A9000C82F682F617080912D010E949D04C1FBB9
:100AA000662760F980912E010E949D04C2FB662793
:100AB00060F980912F010E949D04C3FB662760F9B5
:100AC00080913001CF910C949D04CF93DF9361E02E
:100AD00080912A010E949D0460E080912B010E9478
:100AE0009D04CCE2D1E061E088810E949D048AE00F
:100AF00090E00E94FC0360E08881DF91CF910C942C
:100B00009D04CF9380912B018F3F09F444C060E096
:100B1000809134010E944C0460E080912A010E947F
:100B20009D0461E080912B010E949D0460E0809112
:100B30002C010E949D048AE090E00E94FC0361E089
:100B400080912C010E949D048AE090E00E94FC03A9
:100B5000809134010E94EE04C82F809129018430D5
:100B600091F460E080912C010E949D048AE090E065
:100B70000E94FC0361E080912C010E949D048AE0A8
:100B800090E00E94FC03C111D1CF61E0809134015B
:100B9000CF910C944C0481E090E0CF910C9405042B
:100BA0008F929F92AF92BF92CF92DF92EF92FF927D
:100BB0000F931F93CF93DF93CDB7DEB7D82E162FA9
:100BC000F42E9F84B88880932A0160932B01409370
:100BD0002C0120932D0100932E01E0922F01C09251
:100BE0003001A09231018092320190923301B09293
:100BF00034012F3F39F00F3F29F08FEFE81611F045
:100C0000C81204C084E08093290113C088E0809357
:100C1000290161E0822F0E944C0461E0802F0E9434
:100C20004C0461E08E2D0E944C0461E08C2D0E94EA
:100C30004C0461E08D2D0E944C0461E0812F0E94E4
:100C40004C0461E08F2D0E944C0461E08A2D0E94CB
:100C50004C0461E0882D0E944C0461E0892D0E94C3
:100C60004C0461E08B2DDF91CF911F910F91FF908C
:100C7000EF90DF90CF90BF90AF909F908F900C94AB
:100C80004C04CF93C82F0E948105809129018830A0
:100C900021F48C2F0E94470507C08C2F0E940B0562
:100CA0000E942B05C295C07F8C2F0E940B05CF910F
:100CB0000C942B0590912701891758F41092350157
:100CC00080933601E82FF0E0EA59FF4F80810C94C1
:100CD0004106089581E00E94410680E00C945A0686
:100CE0006093280180932701833040F06F7080E982
:100CF000860F8093680060536093690084E690E0FB
:100D00000E94050480912901883011F488E327C0EE
:100D1000843039F580E30E940B050E942B0584E6A0
:100D200090E00E94050480E30E940B050E942B05C1
:100D300088EC90E00E94FC0380E30E940B050E9477
:100D40002B0588EC90E00E94FC0380E20E940B05DA
:100D50000E942B0588EC90E00E94FC0388E20E9430
:100D600041068EE00E9441060C946A06809136018D
:100D70008F5F80933601109235019091270189177A
:100D800010F010923601E0913601F0E0EA59FF4F81
:100D900080810C94410690912701891780F49091ED
:100DA0002801691760F46093350180933601E82FBC
:100DB000F0E0EA59FF4F8081860F0C9441060895B8
:100DC000CF93C82F9091350180912801981760F436
:100DD000CA3051F00E94810580912901883049F480
:100DE0008C2F0E9447050CC00E94B606CA3091F0B5
:100DF000F1CF8C2F0E940B050E946505C295C07F24
:100E00008C2F0E940B050E946505809135018F5F34
:100E100080933501CF910895AF92BF92CF92DF9228
:100E2000EF92FF920F931F93CF93DF931F92CDB753
:100E3000DEB76B017C01AA24A394B12C4423F1F00A
:100E40000FEF040FC50102C0880F991F0A95E2F742
:100E50008C01222717FD2095322F0C211D212E21D8
:100E60003F2181E0012B022B032B09F480E0805D00
:100E700049830E94E00649814150E0CF0F90DF9105
:100E8000CF911F910F91FF90EF90DF90CF90BF9087
:100E9000AF900895CF93DF93EC018991882319F0E7
:100EA0000E94E006FACFDF91CF910895DF92EF9292
:100EB000FF920F931F93CF93DF93D82E8B018091D6
:100EC0002701D81608F0D12C8CE00E944106E12CB5
:100ED000E801CE0DD11D8881882309F18D2D0E9456
:100EE0005A06F12C80912801F81650F4FE01EF0DFE
:100EF000F11D8081882321F00E94E006F394F2CF57
:100F000080912801F81628F480E20E94E006F3940C
:100F1000F7CF88EC90E00E940504E394D9CF8EE0EF
:100F2000DF91CF911F910F91FF90EF90DF900C9484
:100F300041067F928F929F92AF92BF92CF92DF92A3
:100F4000EF92FF920F931F93CF93DF93CDB7DEB74E
:100F50002A970FB6F894DEBF0FBECDBF782ECB0117
:100F6000BA01C22E22E0721216C04C2D2A960FB67C
:100F7000F894DEBF0FBECDBFDF91CF911F910F91CF
:100F8000FF90EF90DF90CF90BF90AF909F908F90A9
:100F90007F900C940C07611571058105910549F04E
:100FA000FE0131967F018F01872C912CA12CB12C51
:100FB00029C080E32A960FB6F894DEBF0FBECDBFDE
:100FC000DF91CF911F910F91FF90EF90DF90CF9025
:100FD000BF90AF909F908F907F900C94E00661152A
:100FE00071058105910599F0D62EA50194010E9405
:100FF0000B10CA01B901729ED0181124F801D082D9
:101000000F5F1F4FD02EDE18DC1448F310C0FAE03B
:10101000FC1568F0F8011082F3CFFE01ED0DF11D13
:1010200080818A3038F0895C0E94E006DA94D11021
:10103000F4CF02C0805DF8CF2A960FB6F894DEBFD9
:101040000FBECDBFDF91CF911F910F91FF90EF9019
:10105000DF90CF90BF90AF909F908F907F9008953A
:101060002F923F925F926F927F928F929F92AF9258
:10107000BF92CF92DF92EF92FF920F931F93CF9385
:10108000DF93CDB7DEB72E970FB6F894DEBF0FBE55
:10109000CDBF682E722E470122E0821341C0EE249C
:1010A000E394F12CA4E0880C991CAA95E1F7772031
:1010B00009F4A9C08FEF870DD70102C0AA0FBB1F8B
:1010C0008A95E2F7CD01AA2797FDA095BA2F842330
:1010D0009523A623B72321E0892B8A2B8B2B09F498
:1010E00020E0E0E3DE2ED20E8D2D4B875C876D87EE
:1010F0007E870E94E006D801ED91FC911197E80DE2
:10110000F91DE95FFE4FD0828D919C911197019658
:101110008D939C937A947E856D855C854B85C7CF36
:10112000411551056105710509F454C0FE01319660
:101130001F015F01C82ED12CE12CF12C5A2C521822
:101140005714B8F4411551056105710579F0542E15
:10115000CB01BA01A70196010E940B10BA01A901A7
:10116000649E50181124D5015C920BC0BAE0B715EB
:1011700030F434E0880C991C3A95E1F724C0F5016D
:101180001082FFEFAF1ABF0AD9CFFE01E50DF11DA6
:1011900090819A30D8F087E3890F9B870E94E00600
:1011A000D801ED91FC919B859A3090F0995CE80D07
:1011B000F91DE95FFE4F9083F801808191810196CE
:1011C000918380835A945110E0CF1DC080E3E4CF17
:1011D000905DEDCF80E30E94E006D8018D919C9157
:1011E0001197F70124E0EE0FFF1F2A95E1F7E80FB2
:1011F000F91FE95FFE4F80E380838D919C911197E9
:1012000001968D939C932E960FB6F894DEBF0FBE79
:10121000CDBFDF91CF911F910F91FF90EF90DF90A5
:10122000CF90BF90AF909F908F907F906F905F9086
:101230003F902F900895CF93C82F0E9481058091F1
:101240002901883021F48C2F0E94470507C08C2F7C
:101250000E940B050E946505C295C07F8C2F0E94DD
:101260000B05CF910C946505AF92BF92CF92DF92A0
:10127000EF92FF920F931F93CF93DF93CDB7DEB71B
:10128000C854D1090FB6F894DEBF0FBECDBF88E0B9
:10129000EAE6F0E0DE01AF5BBF4F01900D928A9568
:1012A000E1F780E4E2E7F0E0DE01119601900D92B3
:1012B0008A95E1F78E010F5B1F4FCE0101966C01FD
:1012C000580198E0A90EB11CF80181918F010E948C
:1012D0004106E12CF12CF601EE0DFF1D80810E94EC
:1012E0001B09FFEFEF1AFF0A88E0E816F10499F7EF
:1012F00098E0C90ED11C0A151B0531F7C85BDF4FFA
:101300000FB6F894DEBF0FBECDBFDF91CF911F9116
:101310000F91FF90EF90DF90CF90BF90AF90089526
:101320008130910511F480E021C08230910511F4E3
:1013300081E01CC08330910511F482E017C0843035
:10134000910511F483E012C08530910511F484E019
:101350000DC08630910511F485E008C087309105F5
:1013600011F486E003C0089719F487E00C941B0978
:1013700008958FEF0C941B098FE70C941B098EE7DF
:101380000C941B0985EA0C941B09DF92EF92FF92E3
:101390000F931F93CF93DF93FC01EB018A01B4E01D
:1013A000000F111FBA95E1F7D080DD2009F46AC063
:1013B00085E27F01D81252C082E0E80EF11CD18094
:1013C0008EE3D816B1F18D15C8F08EE2D81609F467
:1013D00042C08D1540F085E2D81649F18CE2D81252
:1013E0004FC085E029C08BE3D81669F18CE3D8168D
:1013F00011F18AE3D81244C086E01EC08DE5D816EC
:1014000039F18D1548F08FE3D816F9F08BE5D81235
:1014100037C00E94BC0928C08CE7D81681F08DE740
:10142000D81679F08BE7D8122BC083E005C085E28F
:1014300019C080E001C081E00E941B0915C082E054
:10144000FBCF84E0F9CF87E0F7CF0E94B9090CC049
:101450000E94BF0909C00E94C20906C08FEFE81AA6
:10146000F80A8D2D0E94E006E881F981E00FF11F56
:10147000E95FFE4FD08288819981019699838883A4
:10148000F70192CFDF91CF911F910F91FF90EF90D5
:10149000DF9008956F927F928F929F92AF92BF924A
:1014A000CF92DF92EF92FF920F931F93CF93DF9330
:1014B000CDB7DEB727970FB6F894DEBF0FBECDBF0E
:1014C000188D098DAA8CBB8C6C8C7D8C612F8A2D1C
:1014D0000E94CB0619830A838E01025E1F4F6501AD
:1014E00084E0CC0CDD1C8A95E1F7F3019080992013
:1014F00009F47EC185E2981266C143019FEF891A03
:10150000990AF301918180ED890F8A3080F420E0FF
:1015100080ED890F8A3060F4FAE02F9F800D11244E
:10152000282F8FEF881A980AF4019081F1CF2FEFBE
:10153000953509F4DEC078F59C3309F462C0A0F457
:101540009E3209F46DC040F4953209F42AC19C32F0
:1015500009F049C185E056C09A3309F45BC09B335A
:1015600009F041C187E04EC0923409F4F7C050F44D
:101570009E3309F444C09F3309F035C19B830E9418
:10158000B90913C1943409F488C008F44DC09335E7
:1015900009F4F8C028C1943609F45CC098F49D356C
:1015A000D9F150F4983509F4BDC09B3509F01BC141
:1015B0009B830E94BC09F9C0923609F4C2C09336DD
:1015C00099F111C1983709F4A3C080F4933709F455
:1015D000D9C0953709F007C13801F2E06F0E711CD0
:1015E000F8014081518160E070E08CC09C3771F05F
:1015F0009D3771F09B3709F0F6C083E003C080E0AF
:1016000001C081E09B830E941B09CFC082E0FACF1A
:1016100084E0F8CF86E0F6CF9B830E94BF09C5C067
:101620009B830E94C209C1C03801F2E06F0E711C99
:10163000F8011081812F0E94E00629813A81F6018C
:10164000E20FF31FE95FFE4F10832F5F3F4F3A8396
:101650002983A5C03801F2E06F0E711CF8010081EA
:10166000118117FF14C01195019511098DE22F8387
:101670000E94E00689819A81F601E80FF91FE95F6F
:10168000FE4F3DE2308301969A8389832F81A80122
:10169000662757FD6095762F35C03801F4E06F0E50
:1016A000711CF801408151816281738177FF2AC0EA
:1016B00070956095509541955F4F6F4F7F4F8DE2CC
:1016C0002F834B835C836D837E830E94E006898138
:1016D0009A81F601E80FF91FE95FFE4F3DE2308382
:1016E00001969A8389837E816D815C814B812F81F4
:1016F00009C03801F4E06F0E711CF801408151817E
:101700006281738175018E010F5F1F4F8AE037C0C0
:101710003801F2E06F0E711CF8014081518160E0E8
:1017200070E009C03801F4E06F0E711CF8014081CF
:1017300051816281738175018E010F5F1F4F80E1BE
:101740001EC03801F2E06F0E711CF801408151811A
:101750002F3F09F420E160E070E00CC03801F4E0B4
:101760006F0E711CF80140815181628173812F3F9E
:1017700009F420E175018E010F5F1F4F82E00E9486
:1017800030080DC03801F2E06F0E711CA501BE01DA
:101790006F5F7F4FF801808191810E94C5098301AD
:1017A00022C085E29B830E94E00629813A81F601EE
:1017B000E20FF31FE95FFE4F9B8190832F5F3F4F46
:1017C0003A83298310C0892D0E94E00629813A813D
:1017D000F601E20FF31FE95FFE4F90822F5F3F4F4C
:1017E0003A83298343013401FFEF6F1A7F0A7DCECC
:1017F00027960FB6F894DEBF0FBECDBFDF91CF9115
:101800001F910F91FF90EF90DF90CF90BF90AF901E
:101810009F908F907F906F900895FC0182819381BB
:1018200086179707ECF087E091E09F938F931F92C4
:101830001F921F921F920E944A0A87E191E09F9394
:101840008F931F921F921F9281E08F930E944A0AEA
:101850008DB79EB70C960FB6F8949EBF0FBE8DBF86
:101860000895CF92DF92EF92FF920F931F93CF9341
:10187000DF9300D000D01F92CDB7DEB7FE01709687
:10188000E190F1906F01F7018081882309F429C16B
:10189000853209F01EC187010F5F1F4FF70181815B
:1018A00090ED980F9A3078F420E090ED980F9A30F0
:1018B00058F4FAE02F9F900D1124292F0F5F1F4F2E
:1018C000F8018081F2CF2FEF853509F4B4C070F5AF
:1018D0008C3309F460C0A0F48E3209F469C040F47E
:1018E000853209F4F2C08C3209F0F6C085E05AC0A6
:1018F0008A3309F456C08B3309F0EEC087E052C03A
:10190000823409F4C7C048F48E3309F442C08F33DF
:1019100009F0E2C00E94B909DFC0843409F46BC049
:1019200008F449C0833509F4C5C0D6C0843609F42B
:101930004BC090F48D35C9F148F4883509F490C056
:101940008B3509F0C9C00E94BC09C6C0823609F4B3
:1019500094C0833681F1C0C0883709F477C080F421
:10196000833709F4A7C0853709F0B6C07601F2E0E5
:10197000EF0EF11CF6014081518160E070E064C01F
:101980008C3759F08D3759F08B3709F0A5C083E0BB
:1019900009C080E007C081E005C082E003C084E0A8
:1019A00001C086E00E941B0997C00E94BF0994C035
:1019B0000E94C20991C07601F2E0EF0EF11CF6011F
:1019C00080810E94E0067FC07601F2E0EF0EF11CFC
:1019D000F601C080D180D7FE08C0D194C194D1084F
:1019E0008DE22D830E94E0062D81A601662757FD1A
:1019F0006095762F29C07601F4E0EF0EF11CF60118
:101A0000408151816281738177FF1EC0709560951E
:101A1000509541955F4F6F4F7F4F8DE22D834983E6
:101A20005A836B837C830E94E0067C816B815A81A0
:101A300049812D8109C07601F4E0EF0EF11CF60119
:101A400040815181628173818AE014C07601F2E0A5
:101A5000EF0EF11CF6014081518160E070E009C099
:101A60007601F4E0EF0EF11CF601408151816281B4
:101A7000738180E10E94990726C07601F2E0EF0EA3
:101A8000F11CF601608171812F3F09F420E180E0B3
:101A900090E00CC07601F4E0EF0EF11CF6016081DD
:101AA0007181828193812F3F09F420E1422F0E94AE
:101AB0000C0709C07601F2E0EF0EF11CF6018081FF
:101AC00091810E944A07670107C085E20E94E006F3
:101AD00003C00E94E00687017801FFEFEF1AFF0ABA
:101AE000D2CE0F900F900F900F900F90DF91CF916B
:101AF0001F910F91FF90EF90DF90CF900895CF92BC
:101B0000DF92EF92FF926B017C01DC01CB018056EA
:101B10009940A109B109813A984BA140B10598F4C7
:101B2000A8EFBFEFA70196010E9430107E5E8548A6
:101B30009F4FE4E0220F331F441F551FEA95D1F752
:101B40000E940B1001C023E329B910BCFF90EF9055
:101B5000DF90CF90089528E12AB926E820BD1BB870
:101B60000C947F0D5F9BFECF8CB108955D9BFECFE3
:101B70008CB90895AF92BF92CF92DF92EF92FF920D
:101B80000F931F93CF93DF931F92CDB7DEB76B01F7
:101B90007C01AA24A394B12C4423F1F00FEF040F8D
:101BA000C50102C0880F991F0A95E2F78C01222710
:101BB00017FD2095322F0C211D212E213F2181E080
:101BC000012B022B032B09F480E0805D49830E94E6
:101BD000B60D49814150E0CF0F90DF91CF911F9119
:101BE0000F91FF90EF90DF90CF90BF90AF9008954E
:101BF000CF93DF93EC018991882319F00E94B60DF1
:101C0000FACFDF91CF910895FF920F931F93CF9357
:101C1000DF938C01C8EED3E0F12C0E94B20D8D3021
:101C200029F4F801EF0DF11D108210C08A30C9F3BC
:101C3000883021F4FF2011F0FA9405C0F801EF0D6F
:101C4000F11D8083F3942197209739F78F2DDF9131
:101C5000CF911F910F91FF9008957F928F929F9245
:101C6000AF92BF92CF92DF92EF92FF920F931F93AA
:101C7000CF93DF93CDB7DEB72A970FB6F894DEBFC8
:101C80000FBECDBF782ECB01BA01C22E22E0721258
:101C900016C04C2D2A960FB6F894DEBF0FBECDBFEE
:101CA000DF91CF911F910F91FF90EF90DF90CF9038
:101CB000BF90AF909F908F907F900C94BA0D61155C
:101CC00071058105910549F0FE0131967F018F0173
:101CD000872C912CA12CB12C1DC010E01C15A1F15A
:101CE0001A3091F180E30E94B60D1F5FF7CF6115A6
:101CF00071058105910599F0D62EA50194010E94E8
:101D00000B10CA01B901729ED0181124F801D082BB
:101D10000F5F1F4FD02EDE18DC1448F310C0FAE01E
:101D2000FC1568F0F8011082F3CFFE01ED0DF11DF6
:101D300080818A3038F0895C0E94B60DDA94D11027
:101D4000F4CF02C0805DF8CF2A960FB6F894DEBFBC
:101D50000FBECDBFDF91CF911F910F91FF90EF90FC
:101D6000DF90CF90BF90AF909F908F907F9008951D
:101D70008F929F92AF92BF92CF92DF92EF92FF929B
:101D80006B017C010E94B4104B015C012FEFAB0191
:101D9000BC018AE00E942D0E8EE20E94B60DC501A4
:101DA000B4010E94E0109B01AC01C701B6010E9482
:101DB0004F1020E034E244E759E40E946E110E9483
:101DC000B410AB01BC012FEF8AE0FF90EF90DF90E1
:101DD000CF90BF90AF909F908F900C942D0ECF928C
:101DE000DF92EF92FF920F931F93CF93DF9300D078
:101DF00000D01F92CDB7DEB7FE017096E190F19052
:101E00006F01F7018081882309F4F7C0853209F05A
:101E1000ECC087010F5F1F4FF701818190ED980F94
:101E20009A3078F420E090ED980F9A3058F4FAE068
:101E30002F9F900D1124292F0F5F1F4FF8018081D4
:101E4000F2CF2FEF883509F48FC0C8F4843409F439
:101E50004CC058F4823409F4A1C038F5853209F039
:101E6000C7C085E20E94B60DC3C0833509F4B2C075
:101E7000853509F464C0863409F0BAC09FC086363F
:101E800009F49CC040F4833681F08436B9F0823680
:101E900009F0AEC076C0853709F447C0883709F429
:101EA00059C0833709F0A4C095C07601F2E0EF0E67
:101EB000F11CF60180810E94B60D95C07601F2E01A
:101EC000EF0EF11CF601C080D180D7FE08C0D1947E
:101ED000C194D1088DE22D830E94B60D2D81A601FB
:101EE000662757FD6095762F33C07601F4E0EF0E3C
:101EF000F11CF601408151816281738177FF28C016
:101F000070956095509541955F4F6F4F7F4F8DE273
:101F10002D8349835A836B837C830E94B60D7C8119
:101F20006B815A8149812D8113C07601F2E0EF0E59
:101F3000F11CF6014081518160E070E009C076013A
:101F4000F4E0EF0EF11CF601408151816281738152
:101F50008AE014C07601F2E0EF0EF11CF601408138
:101F6000518160E070E009C07601F4E0EF0EF11CF1
:101F7000F601408151816281738180E10E942D0EC2
:101F800032C07601F2E0EF0EF11CF6016081718142
:101F90002F3F09F420E180E090E00CC07601F4E0EE
:101FA000EF0EF11CF60160817181828193812F3FD8
:101FB00009F420E2422F0E94BA0D15C07601F4E028
:101FC000EF0EF11CF60160817181828193810E9484
:101FD000B80E09C07601F2E0EF0EF11CF601808127
:101FE00091810E94F80D670103C00E94B60D870120
:101FF0007801FFEFEF1AFF0A04CF0F900F900F90B8
:102000000F900F90DF91CF911F910F91FF90EF9064
:10201000DF90CF900895A1E21A2EAA1BBB1BFD01F1
:102020000DC0AA1FBB1FEE1FFF1FA217B307E407B7
:10203000F50720F0A21BB30BE40BF50B661F771F0F
:10204000881F991F1A9469F76095709580959095EF
:102050009B01AC01BD01CF010895B7FF0C94351071
:102060000E943510821B930B08950E944010A59F7B
:10207000900DB49F900DA49F800D911D1124089583
:10208000A29FB001B39FC001A39F700D811D1124B9
:10209000911DB29F700D811D1124911D08955058FE
:1020A000BB27AA270ED0E0C0D1D030F0D6D020F088
:1020B00031F49F3F11F41EF4C6C00EF4E095E7FB27
:1020C000BCC0E92FE2D080F3BA1762077307840718
:1020D000950718F071F49EF5FAC00EF4E0950B2EFA
:1020E000BA2FA02D0B01B90190010C01CA01A0016A
:1020F0001124FF27591B99F0593F50F4503E68F1C5
:102100001A16F040A22F232F342F4427585FF3CF05
:10211000469537952795A795F0405395C9F77EF4D6
:102120001F16BA0B620B730B840BBAF09150A1F01F
:10213000FF0FBB1F661F771F881FC2F70EC0BA0FA5
:10214000621F731F841F48F4879577956795B7952D
:10215000F7959E3F08F0B3CF9395880F08F0992725
:10216000EE0F97958795089598D088F09F5790F037
:10217000B92F9927B751A0F0D1F0660F771F881FAC
:10218000991F1AF0BA95C9F712C0B13081F09FD0EB
:10219000B1E008959CC0672F782F8827B85F39F089
:1021A000B93FCCF3869577956795B395D9F73EF40B
:1021B00090958095709561957F4F8F4F9F4F0895B3
:1021C000E89409C097FB3EF49095809570956195D1
:1021D0007F4F8F4F9F4F9923A9F0F92F96E9BB2787
:1021E0009395F695879577956795B795F111F8CF03
:1021F000FAF4BB0F11F460FF1BC06F5F7F4F8F4F6E
:102200009F4F16C0882311F096E911C0772321F063
:102210009EE8872F762F05C0662371F096E8862FFB
:1022200070E060E02AF09A95660F771F881FDAF752
:10223000880F9695879597F9089597F99F6780E895
:1022400070E060E008959FEF80EC089500240A9408
:102250001616170618060906089500240A94121681
:102260001306140605060895092E0394000C11F4B4
:10227000882352F0BB0F40F4BF2B11F460FF04C061
:102280006F5F7F4F8F4F9F4F089557FD9058440FBA
:10229000551F59F05F3F71F04795880F97FB991FC5
:1022A00061F09F3F79F08795089512161306140682
:1022B000551FF2CF4695F1DF08C01616170618060F
:1022C000991FF1CF86957105610508940895E894EA
:1022D000BB2766277727CB0197F908950BD0C4CF8A
:1022E000B5DF28F0BADF18F0952309F0A6CFABCF01
:1022F0001124EECFCADFA0F3959FD1F3950F50E0E4
:10230000551F629FF001729FBB27F00DB11D639FA7
:10231000AA27F00DB11DAA1F649F6627B00DA11D4D
:10232000661F829F2227B00DA11D621F739FB00DF3
:10233000A11D621F839FA00D611D221F749F332763
:10234000A00D611D231F849F600D211D822F762FFC
:102350006A2F11249F5750408AF0E1F088234AF0F9
:10236000EE0FFF1FBB1F661F771F881F9150504045
:10237000A9F79E3F510570F060CFAACF5F3FECF305
:10238000983EDCF3869577956795B795F795E79531
:102390009F5FC1F7FE2B880F911D9695879597F942
:0623A0000895F894FFCF40
:1023A60006000500040080C090D040485058606880
:1023B600707810181E1F1F1E181001030F1F1F0F05
:1023C60003011B1B1B1B1B1B1B1B0000000000002B
:1023D600000000000000000000000103071F1F07A7
:1023E60003010E1111111F1B1B1F0004040E1515EE
:1023F600110E4D696E2074656D70004F4B004D6176
:10240600782074656D7000686973746572657A000A
:10241600653A202564004D61783A2564004D696E61
:102426003A25640054454D503A25640054454D50B4
:0C2436003A455252002025642F25640016
:00000001FF
