:100000000C942A000C9447000C9447000C94470071
:100010000C9447000C9447000C9447000C94470044
:100020000C9447000C9447000C9447000C94470034
:100030000C9447000C9447000C9447000C94470024
:100040000C9447000C9447000C9447000C94470014
:100050000C94470011241FBECFE5D4E0DEBFCDBF16
:1000600010E0A0E6B0E0E4E6F2E202C005900D92F6
:10007000A23FB107D9F721E0A2EFB0E001C01D9285
:10008000AC32B207E1F70E94B1020C9430110C942B
:100090000000919A0895811102C00C94490082B326
:1000A00012BA0895EF92FF920F931F93CF93DF93AD
:1000B0007C018B01C0E0D0E0CE15DF0559F082B3A2
:1000C00012BAC8010E945A03909AC8010E945A03AA
:1000D0002196F2CF909ADF91CF911F910F91FF90CF
:1000E000EF9008958F92AF92CF92EF92FF920F937D
:1000F0001F93CF93DF930E94BA0286E08F9385E02F
:100100008F9384E0882E93E0A92ECC24CA94EE2409
:10011000EA940FEF2FEF42E061E080E00E942E05AD
:1001200068E082E00E94CE0517BA8FEF81BB88BBE2
:1001300082BB82B312BA68EC70E088E592E00E945C
:1001400052006CE271E088E592E00E94520068EC97
:1001500070E088E592E00E9452000E9449000F90F2
:100160000F90C2EBD0E00BEB10E0FF24F3948091F2
:10017000F2009091F30080329E4420F10E94C80565
:10018000DF93CF931F921F921F921F920E94A80984
:100190008091FB008F938091FA008F931F930F93B0
:1001A0001F92FF921F921F920E94A8091092F300C3
:1001B0001092F2008DB79EB70E960FB6F8949EBFC0
:1001C0000FBE8DBFB09910C08091FA009091FB00D6
:1001D000883C910548F401969093FB008093FA00C7
:1001E00082E390E00E946303B1990FC08091FA000E
:1001F0009091FB00009749F001979093FB0080934A
:10020000FA0082E390E00E946303B29B0AC08091EF
:10021000F2009091F30001969093F3008093F20026
:10022000A6CF0E94C80580EC90E09F938F931F9209
:100230001F921F921F920E94A80964E670E088EB4B
:100240009BE00E94520088EC90E00E946303809142
:10025000FA009091FB009093F9008093F8000F90C2
:100260000F900F900F900F900F90C3ECD0E00BEB1E
:1002700010E0FF24F394B29B5FC08091F200909154
:10028000F30080329E4420F10E94C805DF93CF9393
:100290001F921F921F921F920E94A8098091F9003D
:1002A0008F938091F8008F931F930F931F92FF926B
:1002B0001F921F920E94A8091092F3001092F20060
:1002C0008DB79EB70E960FB6F8949EBF0FBE8DBF2A
:1002D000B09910C08091F8009091F900883C910588
:1002E00048F401969093F9008093F80082E390E03F
:1002F0000E946303B19916C08091F8009091F900B3
:10030000009781F02091FA003091FB0028173907FF
:1003100048F401979093F9008093F80082E390E00D
:100320000E9463038091F2009091F30001969093F4
:10033000F3008093F2009FCF0E94C80580EC90E00C
:100340009F938F931F921F921F921F920E94A80942
:1003500064E670E088EB9BE00E94520088EC90E03D
:100360000E9463030E94C8058091F9008F938091D9
:10037000F8008F938CEC90E09F938F931F921F92C5
:100380001F921F920E94A8098091FB008F93809179
:10039000FA008F9383ED90E09F938F931F9281E0FB
:1003A0008F931F921F920E94A8098DB79EB7469601
:1003B0000FB6F8949EBF0FBE8DBF88EE93E0DF911D
:1003C000CF911F910F91FF90EF90CF90AF908F90B2
:1003D0000C94630364E670E084EF91E00E945200A5
:1003E00068EC70E084EF91E00C9452000E94C80524
:1003F0001092F3001092F200CC24C394D12CCBEED7
:10040000D0E0BB24B39402EE10E03AEDE32E30E0EE
:10041000F32E42E0A42E8091F2009091F300892BFC
:1004200009F44EC00E94C8058091F6009091F70033
:100430008C392FEF920799F09F938F93FF92EF9251
:100440001F921F921F921F920E94A8098DB79EB7FC
:1004500008960FB6F8949EBF0FBE8DBF10C01F93B5
:100460000F931F921F921F921F920E94A80982B39E
:1004700012BA0F900F900F900F900F900F908091E5
:10048000F9008F938091F8008F938091FB008F93F8
:100490008091FA008F93DF93CF931F92BF921F92A8
:1004A0001F920E94A8091092F3001092F2008DB7DB
:1004B0009EB70A960FB6F8949EBF0FBE8DBF04C0BC
:1004C000D092F300C092F2000E94EB020E9413103F
:1004D0009B017093F7006093F6008091F800909173
:1004E000F9008217930738F08091FA009091FB0091
:1004F0002817390798F48091F400823078F482B399
:1005000012BAB092F4008091F500811102C00E94ED
:10051000EA01B29980CFB092F5007DCF1092F5003C
:100520000E9449008091F400813011F4A092F400FF
:100530002091F6003091F7008091F8009091F90039
:1005400001972817390708F066CF8091FA0090913B
:10055000FB0001968217930708F05DCF1092F4001C
:100560005ACF0E9472000E94F60185B315BA089511
:10057000A89A089587E084BB0C94B80285B315BA95
:100580000895A99A0895FF920F931F93CF93DF9335
:10059000F12CC7E0D0E001E010E00E94BE028AE04A
:1005A00090E00E945A039F9B07C098010C2E01C047
:1005B000220F0A94EAF7F22A0E94C1028AE090E030
:1005C0000E945A03219748F78F2DDF91CF911F91F9
:1005D0000F91FF900895CF93DF930E94B5028AE0B8
:1005E00090E00E945A030E94C302682F70E0D62F49
:1005F000CC270E94C302C82B0E94B8028AE090E078
:100600000E9463030E94BE020E94B5028AE090E04D
:100610000E9463030E94B80288EC90E00E9463038A
:100620008AE090E00E945A03C2FD11C0BE0183E03F
:10063000769567958A95E1F780E090E00E943F10FB
:1006400020E030E040E85EE30E94CD1004C060E0AE
:1006500070E088EC92ECDF91CF91089584B3807FB5
:1006600084BB84B38E6084BB81E58DB981E08EB993
:100670000895262FFB013E2F321B341748F4DC016E
:100680003D91CD013FB9779BFECF3FB13193F3CF81
:100690000895282FFC018E2F821B861728F4819144
:1006A0008FB9779BFECFF7CF08958FB9779BFECF99
:1006B0008FB10895009731F025E02A95F1F70000F9
:1006C0000197F8CF0895009741F0EFE9FFE03197E7
:1006D000F1F700C000000197F6CF0895E199FECF31
:1006E0009FBB8EBB6DBBE29AE19A0895E199FECF64
:1006F0009FBB8EBBE09A8DB308950F931F93CF934A
:10070000DF93EB018C01061B170BCE01800F911FAD
:1007100069910E946E03FE01319780818111F5CFAE
:10072000DF91CF911F910F9108950F931F93CF9356
:10073000DF93EB018C01061B170BCE01800F911F7D
:100740000E94760389938111F8CFDF91CF911F9199
:100750000F910895282F277086958695869581306C
:10076000B9F028F0823029F18330A1F108953AB32D
:1007700081E090E0022E01C0880F0A94EAF7662318
:1007800019F0382B3ABB0895809583238ABB0895CE
:1007900037B381E090E0022E01C0880F0A94EAF797
:1007A000662319F0382B37BB08958095832387BBC8
:1007B000089534B381E090E0022E01C0880F0A94BE
:1007C000EAF7662319F0382B34BB0895809583230C
:1007D00084BB089531B381E090E0022E01C0880F00
:1007E0000A94EAF7662319F0382B31BB08958095F7
:1007F000832381BB0895282F27708695869586953B
:100800008130B9F028F0823029F18330A1F10895C8
:100810003BB381E090E0022E01C0880F0A94EAF712
:10082000662319F0382B3BBB0895809583238BBB3F
:10083000089538B381E090E0022E01C0880F0A9439
:10084000EAF7662319F0382B38BB08958095832387
:1008500088BB089535B381E090E0022E01C0880F77
:100860000A94EAF7662319F0382B35BB0895809572
:10087000832385BB089532B381E090E0022E01C04E
:10088000880F0A94EAF7662319F0382B32BB0895D3
:100890008095832382BB0895282F2770869586959F
:1008A0008695813049F030F0823041F0833079F420
:1008B00080B305C089B303C086B301C083B390E0A1
:1008C00002C0959587952A95E2F78170089580E09A
:1008D0000895CF93C82F84FB662760F98091260185
:1008E0000E94FB03C5FB662760F9809127010E94E7
:1008F000FB03C6FB662760F9809128010E94FB0379
:100900006C2F661F6627661F80912901CF910C947A
:10091000FB03CF93DF9360E080911F010E94FB03F4
:1009200060E0809120010E94FB03C1E2D1E061E020
:1009300088810E94FB038AE090E00E945A0360E0F5
:100940008881DF91CF910C94FB03CF93C82F682F40
:100950006170809122010E94FB03C1FB662760F950
:10096000809123010E94FB03C2FB662760F98091FE
:1009700024010E94FB03C3FB662760F980912501D7
:10098000CF910C94FB03CF93DF9361E080911F0123
:100990000E94FB0360E0809120010E94FB03C1E202
:1009A000D1E061E088810E94FB038AE090E00E9430
:1009B0005A0360E08881DF91CF910C94FB03CF93C1
:1009C000809120018F3F09F444C060E080912901AB
:1009D0000E94AA0360E080911F010E94FB0361E076
:1009E000809120010E94FB0360E0809121010E9420
:1009F000FB038AE090E00E945A0361E080912101AC
:100A00000E94FB038AE090E00E945A038091290132
:100A10000E944C04C82F80911E01843091F460E044
:100A2000809121010E94FB038AE090E00E945A031A
:100A300061E0809121010E94FB038AE090E00E9426
:100A40005A03C111D1CF61E080912901CF910C945B
:100A5000AA0381E090E0CF910C9463038F929F9260
:100A6000AF92BF92CF92DF92EF92FF920F931F93BC
:100A7000CF93DF93CDB7DEB7D82E162FF42E9F84F9
:100A8000B88880931F016093200140932101209337
:100A9000220100932301E0922401C0922501A0923B
:100AA00026018092270190922801B09229012F3FC0
:100AB00039F00F3F29F08FEFE81611F0C81204C08B
:100AC00084E080931E0113C088E080931E0161E0E2
:100AD000822F0E94AA0361E0802F0E94AA0361E096
:100AE0008E2D0E94AA0361E08C2D0E94AA0361E072
:100AF0008D2D0E94AA0361E0812F0E94AA0361E06C
:100B00008F2D0E94AA0361E08A2D0E94AA0361E052
:100B1000882D0E94AA0361E0892D0E94AA0361E04A
:100B20008B2DDF91CF911F910F91FF90EF90DF9070
:100B3000CF90BF90AF909F908F900C94AA03CF93CB
:100B4000C82F0E94DF0480911E01883021F48C2F71
:100B50000E94A50407C08C2F0E9469040E9489048A
:100B6000C295C07F8C2F0E946904CF910C94890498
:100B700090911C01891758F410922A0180932B013F
:100B8000E82FF0E0EA59FF4F80810C949F0508950B
:100B900081E00E949F0580E00C94B80560931D01E0
:100BA00080931C01833040F06F7080E9860F809342
:100BB000680060536093690084E690E00E946303DC
:100BC00080911E01883011F488E327C0843039F504
:100BD00080E30E9469040E94890484E690E00E94F8
:100BE000630380E30E9469040E94890488EC90E01A
:100BF0000E945A0380E30E9469040E94890488ECE1
:100C000090E00E945A0380E20E9469040E948904D5
:100C100088EC90E00E945A0388E20E949F058EE0D3
:100C20000E949F050C94C80580912B018F5F8093D3
:100C30002B0110922A0190911C01891710F010923B
:100C40002B01E0912B01F0E0EA59FF4F80810C94D9
:100C50009F0590911C01891780F490911D016917DF
:100C600060F460932A0180932B01E82FF0E0EA59A9
:100C7000FF4F8081860F0C949F050895CF93C82F56
:100C800090912A0180911D01981760F4CA3051F0AB
:100C90000E94DF0480911E01883049F48C2F0E944D
:100CA000A5040CC00E941406CA3091F0F1CF8C2F1D
:100CB0000E9469040E94C304C295C07F8C2F0E94C9
:100CC00069040E94C30480912A018F5F80932A01E6
:100CD000CF910895AF92BF92CF92DF92EF92FF92A1
:100CE0000F931F93CF93DF931F92CDB7DEB76B01A6
:100CF0007C01AA24A394B12C4423F1F00FEF040F3C
:100D0000C50102C0880F991F0A95E2F78C012227BE
:100D100017FD2095322F0C211D212E213F2181E02E
:100D2000012B022B032B09F480E0805D49830E9494
:100D30003E0649814150E0CF0F90DF91CF911F9146
:100D40000F91FF90EF90DF90CF90BF90AF900895FC
:100D5000CF93DF93EC018991882319F00E943E061E
:100D6000FACFDF91CF910895DF92EF92FF920F9328
:100D70001F93CF93DF93D82E8B0180911C01D8163F
:100D800008F0D12C8CE00E949F05E12CE801CE0DEB
:100D9000D11D8881882309F18D2D0E94B805F12C81
:100DA00080911D01F81650F4FE01EF0DF11D8081B8
:100DB000882321F00E943E06F394F2CF80911D011A
:100DC000F81628F480E20E943E06F394F7CF88ECF0
:100DD00090E00E946303E394D9CF8EE0DF91CF913E
:100DE0001F910F91FF90EF90DF900C949F057F92E1
:100DF0008F929F92AF92BF92CF92DF92EF92FF922B
:100E00000F931F93CF93DF93CDB7DEB72A970FB61B
:100E1000F894DEBF0FBECDBF782ECB01BA01C22E33
:100E200022E0721216C04C2D2A960FB6F894DEBF3F
:100E30000FBECDBFDF91CF911F910F91FF90EF902B
:100E4000DF90CF90BF90AF909F908F907F900C9449
:100E50006A06611571058105910549F0FE0131961B
:100E60007F018F01872C912CA12CB12C29C080E30C
:100E70002A960FB6F894DEBF0FBECDBFDF91CF919B
:100E80001F910F91FF90EF90DF90CF90BF90AF90A8
:100E90009F908F907F900C943E066115710581059F
:100EA000910599F0D62EA50194010E946A0FCA01FE
:100EB000B901729ED0181124F801D0820F5F1F4F24
:100EC000D02EDE18DC1448F310C0FAE0FC1568F0F0
:100ED000F8011082F3CFFE01ED0DF11D80818A3003
:100EE00038F0895C0E943E06DA94D110F4CF02C03B
:100EF000805DF8CF2A960FB6F894DEBF0FBECDBF47
:100F0000DF91CF911F910F91FF90EF90DF90CF90E5
:100F1000BF90AF909F908F907F9008952F923F92B7
:100F20005F926F927F928F929F92AF92BF92CF9279
:100F3000DF92EF92FF920F931F93CF93DF93CDB782
:100F4000DEB72E970FB6F894DEBF0FBECDBF682E6A
:100F5000722E470122E0821341C0EE24E394F12C6B
:100F6000A4E0880C991CAA95E1F7772009F4A9C0A0
:100F70008FEF870DD70102C0AA0FBB1F8A95E2F73A
:100F8000CD01AA2797FDA095BA2F84239523A623E8
:100F9000B72321E0892B8A2B8B2B09F420E0E0E397
:100FA000DE2ED20E8D2D4B875C876D877E870E944B
:100FB0003E06D801ED91FC911197E80DF91DE45022
:100FC000FF4FD0828D919C91119701968D939C93A8
:100FD0007A947E856D855C854B85C7CF411551051B
:100FE0006105710509F454C0FE0131961F015F01CE
:100FF000C82ED12CE12CF12C5A2C52185714B8F4CD
:10100000411551056105710579F0542ECB01BA01E6
:10101000A70196010E946A0FBA01A901649E5018A7
:101020001124D5015C920BC0BAE0B71530F434E05E
:10103000880C991C3A95E1F724C0F5011082FFEF66
:10104000AF1ABF0AD9CFFE01E50DF11D90819A308C
:10105000D8F087E3890F9B870E943E06D801ED9167
:10106000FC919B859A3090F0995CE80DF91DE45055
:10107000FF4F9083F8018081918101969183808355
:101080005A945110E0CF1DC080E3E4CF905DEDCFC6
:1010900080E30E943E06D8018D919C911197F70143
:1010A00024E0EE0FFF1F2A95E1F7E80FF91FE45047
:1010B000FF4F80E380838D919C91119701968D93D2
:1010C0009C932E960FB6F894DEBF0FBECDBFDF9176
:1010D000CF911F910F91FF90EF90DF90CF90BF9035
:1010E000AF909F908F907F906F905F903F902F90E8
:1010F0000895CF93C82F0E94DF0480911E0188308D
:1011000021F48C2F0E94A50407C08C2F0E94690433
:101110000E94C304C295C07F8C2F0E946904CF91A6
:101120000C94C304AF92BF92CF92DF92EF92FF92E2
:101130000F931F93CF93DF93CDB7DEB7C854D10978
:101140000FB6F894DEBF0FBECDBF88E0EAE6F0E050
:10115000DE01AF5BBF4F01900D928A95E1F780E40D
:10116000E2E7F0E0DE01119601900D928A95E1F739
:101170008E010F5B1F4FCE0101966C01580198E064
:10118000A90EB11CF80181918F010E949F05E12CED
:10119000F12CF601EE0DFF1D80810E947908FFEF12
:1011A000EF1AFF0A88E0E816F10499F798E0C90EF3
:1011B000D11C0A151B0531F7C85BDF4F0FB6F89439
:1011C000DEBF0FBECDBFDF91CF911F910F91FF907A
:1011D000EF90DF90CF90BF90AF9008958130910550
:1011E00011F480E021C08230910511F481E01CC02F
:1011F0008330910511F482E017C08430910511F419
:1012000083E012C08530910511F484E00DC0863072
:10121000910511F485E008C08730910511F486E04E
:1012200003C0089719F487E00C94790808958FEFAC
:101230000C9479088FE70C9479088EE70C94790860
:1012400085EA0C947908DF92EF92FF920F931F9337
:10125000CF93DF93FC01EB018A01B4E0000F111F73
:10126000BA95E1F7D080DD2009F46AC085E27F01FC
:10127000D81252C082E0E80EF11CD1808EE3D8165D
:10128000B1F18D15C8F08EE2D81609F442C08D1563
:1012900040F085E2D81649F18CE2D8124FC085E0C3
:1012A00029C08BE3D81669F18CE3D81611F18AE3D3
:1012B000D81244C086E01EC08DE5D81639F18D15D0
:1012C00048F08FE3D816F9F08BE5D81237C00E94AA
:1012D0001A0928C08CE7D81681F08DE7D81679F066
:1012E0008BE7D8122BC083E005C085E219C080E0EF
:1012F00001C081E00E94790815C082E0FBCF84E044
:10130000F9CF87E0F7CF0E9417090CC00E941D0992
:1013100009C00E94200906C08FEFE81AF80A8D2D37
:101320000E943E06E881F981E00FF11FE450FF4F73
:10133000D08288819981019699838883F70192CF21
:10134000DF91CF911F910F91FF90EF90DF90089563
:101350006F927F928F929F92AF92BF92CF92DF92C5
:10136000EF92FF920F931F93CF93DF93CDB7DEB72A
:1013700027970FB6F894DEBF0FBECDBF188D098D2D
:10138000AA8CBB8C6C8C7D8C612F8A2D0E942906C7
:1013900019830A838E01025E1F4F650184E0CC0C25
:1013A000DD1C8A95E1F7F3019080992009F47EC154
:1013B00085E2981266C143019FEF891A990AF301E9
:1013C000918180ED890F8A3080F420E080ED890FD3
:1013D0008A3060F4FAE02F9F800D1124282F8FEFC0
:1013E000881A980AF4019081F1CF2FEF953509F40E
:1013F000DEC078F59C3309F462C0A0F49E3209F493
:101400006DC040F4953209F42AC19C3209F049C1FB
:1014100085E056C09A3309F45BC09B3309F041C1A3
:1014200087E04EC0923409F4F7C050F49E3309F4BB
:1014300044C09F3309F035C19B830E94170913C133
:10144000943409F488C008F44DC0933509F4F8C009
:1014500028C1943609F45CC098F49D35D9F150F454
:10146000983509F4BDC09B3509F01BC19B830E94D0
:101470001A09F9C0923609F4C2C0933699F111C124
:10148000983709F4A3C080F4933709F4D9C095378D
:1014900009F007C13801F2E06F0E711CF8014081BC
:1014A000518160E070E08CC09C3771F09D3771F025
:1014B0009B3709F0F6C083E003C080E001C081E003
:1014C0009B830E947908CFC082E0FACF84E0F8CFF6
:1014D00086E0F6CF9B830E941D09C5C09B830E94B6
:1014E0002009C1C03801F2E06F0E711CF8011081B3
:1014F000812F0E943E0629813A81F601E20FF31FF7
:10150000E450FF4F10832F5F3F4F3A832983A5C0DC
:101510003801F2E06F0E711CF8010081118117FF94
:1015200014C01195019511098DE22F830E943E068A
:1015300089819A81F601E80FF91FE450FF4F3DE2DF
:10154000308301969A8389832F81A801662757FDEE
:101550006095762F35C03801F4E06F0E711CF801EC
:10156000408151816281738177FF2AC070956095B7
:10157000509541955F4F6F4F7F4F8DE22F834B8387
:101580005C836D837E830E943E0689819A81F60189
:10159000E80FF91FE450FF4F3DE2308301969A8334
:1015A00089837E816D815C814B812F8109C03801E7
:1015B000F4E06F0E711CF8014081518162817381EA
:1015C00075018E010F5F1F4F8AE037C03801F2E0CE
:1015D0006F0E711CF8014081518160E070E009C01C
:1015E0003801F4E06F0E711CF80140815181628175
:1015F000738175018E010F5F1F4F80E11EC038019E
:10160000F2E06F0E711CF801408151812F3F09F407
:1016100020E160E070E00CC03801F4E06F0E711C56
:10162000F80140815181628173812F3F09F420E1EB
:1016300075018E010F5F1F4F82E00E948E070DC063
:101640003801F2E06F0E711CA501BE016F5F7F4F84
:10165000F801808191810E942309830122C085E2E3
:101660009B830E943E0629813A81F601E20FF31F17
:10167000E450FF4F9B8190832F5F3F4F3A83298334
:1016800010C0892D0E943E0629813A81F601E20FA1
:10169000F31FE450FF4F90822F5F3F4F3A8329831F
:1016A00043013401FFEF6F1A7F0A7DCE27960FB6F4
:1016B000F894DEBF0FBECDBFDF91CF911F910F9188
:1016C000FF90EF90DF90CF90BF90AF909F908F9062
:1016D0007F906F900895FC01828193818617970710
:1016E000ECF08CEF90E09F938F931F921F921F92CC
:1016F0001F920E94A8098CE091E09F938F931F9204
:101700001F921F9281E08F930E94A8098DB79EB708
:101710000C960FB6F8949EBF0FBE8DBF0895CF9262
:10172000DF92EF92FF920F931F93CF93DF9300D03E
:1017300000D01F92CDB7DEB7FE017096E190F19018
:101740006F01F7018081882309F429C1853209F0EE
:101750001EC187010F5F1F4FF701818190ED980F28
:101760009A3078F420E090ED980F9A3058F4FAE02F
:101770002F9F900D1124292F0F5F1F4FF80180819B
:10178000F2CF2FEF853509F4B4C070F58C3309F42E
:1017900060C0A0F48E3209F469C040F4853209F4C7
:1017A000F2C08C3209F0F6C085E05AC08A3309F4E1
:1017B00056C08B3309F0EEC087E052C0823409F482
:1017C000C7C048F48E3309F442C08F3309F0E2C039
:1017D0000E941709DFC0843409F46BC008F449C0C3
:1017E000833509F4C5C0D6C0843609F44BC090F4E3
:1017F0008D35C9F148F4883509F490C08B3509F06E
:10180000C9C00E941A09C6C0823609F494C0833642
:1018100081F1C0C0883709F477C080F4833709F4B8
:10182000A7C0853709F0B6C07601F2E0EF0EF11CD3
:10183000F6014081518160E070E064C08C3759F05E
:101840008D3759F08B3709F0A5C083E009C080E0DF
:1018500007C081E005C082E003C084E001C086E0EB
:101860000E94790897C00E941D0994C00E94200917
:1018700091C07601F2E0EF0EF11CF60180810E942A
:101880003E067FC07601F2E0EF0EF11CF601C0804B
:10189000D180D7FE08C0D194C194D1088DE22D83A8
:1018A0000E943E062D81A601662757FD6095762F82
:1018B00029C07601F4E0EF0EF11CF6014081518160
:1018C0006281738177FF1EC0709560955095419538
:1018D0005F4F6F4F7F4F8DE22D8349835A836B8318
:1018E0007C830E943E067C816B815A8149812D81D7
:1018F00009C07601F4E0EF0EF11CF6014081518140
:10190000628173818AE014C07601F2E0EF0EF11C6F
:10191000F6014081518160E070E009C07601F4E099
:10192000EF0EF11CF601408151816281738180E1EB
:101930000E94F70626C07601F2E0EF0EF11CF601D8
:10194000608171812F3F09F420E180E090E00CC0BC
:101950007601F4E0EF0EF11CF60160817181828165
:1019600093812F3F09F420E1422F0E946A0609C0AB
:101970007601F2E0EF0EF11CF601808191810E9468
:10198000A806670107C085E20E943E0603C00E94C8
:101990003E0687017801FFEFEF1AFF0AD2CE0F90C3
:1019A0000F900F900F900F90DF91CF911F910F919B
:1019B000FF90EF90DF90CF900895CF92DF92EF925B
:1019C000FF926B017C01DC01CB0180569940A1099B
:1019D000B109813A984BA140B10598F4A8EFBFEF47
:1019E000A70196010E948F0F7C5D8B409F4FE4E022
:1019F000220F331F441F551FEA95D1F70E946A0F2B
:101A000002C027E630E029B930BDFF90EF90DF90AB
:101A1000CF90089528E12AB926E820BD1BB80C9480
:101A2000DD0C5F9BFECF8CB108955D9BFECF8CB922
:101A30000895AF92BF92CF92DF92EF92FF920F93F1
:101A40001F93CF93DF931F92CDB7DEB76B017C015D
:101A5000AA24A394B12C4423F1F00FEF040FC50185
:101A600002C0880F991F0A95E2F78C01222717FD03
:101A70002095322F0C211D212E213F2181E0012BA9
:101A8000022B032B09F480E0805D49830E94150D31
:101A900049814150E0CF0F90DF91CF911F910F917D
:101AA000FF90EF90DF90CF90BF90AF900895CF93CD
:101AB000DF93EC018991882319F00E94150DFACF6C
:101AC000DF91CF910895FF920F931F93CF93DF93F0
:101AD0008C01C8EED3E0F12C0E94110D8D3029F459
:101AE000F801EF0DF11D108210C08A30C9F3883063
:101AF00021F4FF2011F0FA9405C0F801EF0DF11D5B
:101B00008083F3942197209739F78F2DDF91CF9120
:101B10001F910F91FF9008957F928F929F92AF92A5
:101B2000BF92CF92DF92EF92FF920F931F93CF93CA
:101B3000DF93CDB7DEB72A970FB6F894DEBF0FBE9E
:101B4000CDBF782ECB01BA01C22E22E0721216C090
:101B50004C2D2A960FB6F894DEBF0FBECDBFDF9195
:101B6000CF911F910F91FF90EF90DF90CF90BF909A
:101B7000AF909F908F907F900C94190D6115710517
:101B80008105910549F0FE0131967F018F01872C77
:101B9000912CA12CB12C1DC010E01C15A1F11A3004
:101BA00091F180E30E94150D1F5FF7CF611571055C
:101BB0008105910599F0D62EA50194010E946A0F26
:101BC000CA01B901729ED0181124F801D0820F5FAA
:101BD0001F4FD02EDE18DC1448F310C0FAE0FC15BD
:101BE00068F0F8011082F3CFFE01ED0DF11D808148
:101BF0008A3038F0895C0E94150DDA94D110F4CF48
:101C000002C0805DF8CF2A960FB6F894DEBF0FBEF3
:101C1000CDBFDF91CF911F910F91FF90EF90DF909B
:101C2000CF90BF90AF909F908F907F9008958F92AC
:101C30009F92AF92BF92CF92DF92EF92FF926B0191
:101C40007C010E9413104B015C012FEFAB01BC0122
:101C50008AE00E948C0D8EE20E94150DC501B40130
:101C60000E943F109B01AC01C701B6010E94AE0F5C
:101C700020E034E244E759E40E94CD100E941310A2
:101C8000AB01BC012FEF8AE0FF90EF90DF90CF9087
:101C9000BF90AF909F908F900C948C0DCF92DF925D
:101CA000EF92FF920F931F93CF93DF9300D000D05A
:101CB0001F92CDB7DEB7FE017096E190F1906F01F3
:101CC000F7018081882309F4F7C0853209F0ECC060
:101CD00087010F5F1F4FF701818190ED980F9A30B8
:101CE00078F420E090ED980F9A3058F4FAE02F9FA6
:101CF000900D1124292F0F5F1F4FF8018081F2CF23
:101D00002FEF883509F48FC0C8F4843409F44CC02F
:101D100058F4823409F4A1C038F5853209F0C7C0FF
:101D200085E20E94150DC3C0833509F4B2C0853524
:101D300009F464C0863409F0BAC09FC0863609F43D
:101D40009CC040F4833681F08436B9F0823609F0C5
:101D5000AEC076C0853709F447C0883709F459C04A
:101D6000833709F0A4C095C07601F2E0EF0EF11CB4
:101D7000F60180810E94150D95C07601F2E0EF0E0C
:101D8000F11CF601C080D180D7FE08C0D194C19467
:101D9000D1088DE22D830E94150D2D81A6016627A5
:101DA00057FD6095762F33C07601F4E0EF0EF11CFD
:101DB000F601408151816281738177FF28C070955F
:101DC0006095509541955F4F6F4F7F4F8DE22D830A
:101DD00049835A836B837C830E94150D7C816B81C0
:101DE0005A8149812D8113C07601F2E0EF0EF11C7A
:101DF000F6014081518160E070E009C07601F4E0B5
:101E0000EF0EF11CF60140815181628173818AE0FD
:101E100014C07601F2E0EF0EF11CF6014081518111
:101E200060E070E009C07601F4E0EF0EF11CF6010D
:101E3000408151816281738180E10E948C0D32C0AA
:101E40007601F2E0EF0EF11CF601608171812F3F07
:101E500009F420E180E090E00CC07601F4E0EF0EA0
:101E6000F11CF60160817181828193812F3F09F419
:101E700020E2422F0E94190D15C07601F4E0EF0E0A
:101E8000F11CF60160817181828193810E94170E9D
:101E900009C07601F2E0EF0EF11CF601808191811C
:101EA0000E94570D670103C00E94150D870178013C
:101EB000FFEFEF1AFF0A04CF0F900F900F900F90D3
:101EC0000F90DF91CF911F910F91FF90EF90DF90D6
:101ED000CF900895A1E21A2EAA1BBB1BFD010DC0D5
:101EE000AA1FBB1FEE1FFF1FA217B307E407F507CA
:101EF00020F0A21BB30BE40BF50B661F771F881FA6
:101F0000991F1A9469F760957095809590959B013B
:101F1000AC01BD01CF010895B7FF0C94940F0E944E
:101F2000940F821B930B08950E949F0FA59F900D05
:101F3000B49F900DA49F800D911D11240895A29F20
:101F4000B001B39FC001A39F700D811D1124911D8D
:101F5000B29F700D811D1124911D08955058BB270B
:101F6000AA270ED0E0C0D1D030F0D6D020F031F486
:101F70009F3F11F41EF4C6C00EF4E095E7FBBCC011
:101F8000E92FE2D080F3BA17620773078407950739
:101F900018F071F49EF5FAC00EF4E0950B2EBA2FEE
:101FA000A02D0B01B90190010C01CA01A00111245F
:101FB000FF27591B99F0593F50F4503E68F11A160B
:101FC000F040A22F232F342F4427585FF3CF46959C
:101FD00037952795A795F0405395C9F77EF41F16BE
:101FE000BA0B620B730B840BBAF09150A1F0FF0F88
:101FF000BB1F661F771F881FC2F70EC0BA0F621F74
:10200000731F841F48F4879577956795B795F79563
:102010009E3F08F0B3CF9395880F08F09927EE0FF5
:1020200097958795089598D088F09F5790F0B92F8D
:102030009927B751A0F0D1F0660F771F881F991F1D
:102040001AF0BA95C9F712C0B13081F09FD0B1E053
:1020500008959CC0672F782F8827B85F39F0B93F63
:10206000CCF3869577956795B395D9F73EF490951F
:102070008095709561957F4F8F4F9F4F0895E8949D
:1020800009C097FB3EF490958095709561957F4FC0
:102090008F4F9F4F9923A9F0F92F96E9BB2793956E
:1020A000F695879577956795B795F111F8CFFAF47E
:1020B000BB0F11F460FF1BC06F5F7F4F8F4F9F4FAF
:1020C00016C0882311F096E911C0772321F09EE80D
:1020D000872F762F05C0662371F096E8862F70E073
:1020E00060E02AF09A95660F771F881FDAF7880F4D
:1020F0009695879597F9089597F99F6780E870E01E
:1021000060E008959FEF80EC089500240A9416166D
:10211000170618060906089500240A9412161306D5
:10212000140605060895092E0394000C11F4882363
:1021300052F0BB0F40F4BF2B11F460FF04C06F5F7F
:102140007F4F8F4F9F4F089557FD9058440F551F55
:1021500059F05F3F71F04795880F97FB991F61F029
:102160009F3F79F087950895121613061406551FA0
:10217000F2CF4695F1DF08C0161617061806991F0C
:10218000F1CF86957105610508940895E894BB2701
:1021900066277727CB0197F908950BD0C4CFB5DF19
:1021A00028F0BADF18F0952309F0A6CFABCF1124A1
:1021B000EECFCADFA0F3959FD1F3950F50E0551FE6
:1021C000629FF001729FBB27F00DB11D639FAA278C
:1021D000F00DB11DAA1F649F6627B00DA11D661FDB
:1021E000829F2227B00DA11D621F739FB00DA11DFC
:1021F000621F839FA00D611D221F749F3327A00DB6
:10220000611D231F849F600D211D822F762F6A2F51
:1022100011249F5750408AF0E1F088234AF0EE0FD6
:10222000FF1FBB1F661F771F881F91505040A9F7E3
:102230009E3F510570F060CFAACF5F3FECF3983E10
:10224000DCF3869577956795B795F795E7959F5F4A
:10225000C1F7FE2B880F911D9695879597F90895E4
:04226000F894FFCF20
:1022640006000500040080C090D0404850586068C3
:10227400707810181E1F1F1E181001030F1F1F0F48
:1022840003011B1B1B1B1B1B1B1B0000000000006E
:10229400000000000000000000000103071F1F07EA
:1022A40003010E1111111F1B1B1F0004040E151531
:1022B400110E4D696E2074656D70003A202564001E
:1022C4004F4B004D61782074656D70004D61783A14
:1022D4002564004D696E3A25640054454D503A25F5
:1022E400640054454D503A455252002025642F2530
:0222F400640084
:00000001FF
